{
  "contractName": "Dex",
  "abi": [
    {
      "inputs": [],
      "stateMutability": "nonpayable",
      "type": "constructor"
    },
    {
      "anonymous": false,
      "inputs": [
        {
          "indexed": false,
          "internalType": "uint256",
          "name": "tradeId",
          "type": "uint256"
        },
        {
          "indexed": false,
          "internalType": "uint256",
          "name": "orderId",
          "type": "uint256"
        },
        {
          "indexed": true,
          "internalType": "bytes32",
          "name": "ticker",
          "type": "bytes32"
        },
        {
          "indexed": true,
          "internalType": "address",
          "name": "trader1",
          "type": "address"
        },
        {
          "indexed": true,
          "internalType": "address",
          "name": "trader2",
          "type": "address"
        },
        {
          "indexed": false,
          "internalType": "uint256",
          "name": "amount",
          "type": "uint256"
        },
        {
          "indexed": false,
          "internalType": "uint256",
          "name": "price",
          "type": "uint256"
        },
        {
          "indexed": false,
          "internalType": "uint256",
          "name": "date",
          "type": "uint256"
        }
      ],
      "name": "NewTrade",
      "type": "event"
    },
    {
      "inputs": [],
      "name": "admin",
      "outputs": [
        {
          "internalType": "address",
          "name": "",
          "type": "address"
        }
      ],
      "stateMutability": "view",
      "type": "function",
      "constant": true
    },
    {
      "inputs": [],
      "name": "nextOrderId",
      "outputs": [
        {
          "internalType": "uint256",
          "name": "",
          "type": "uint256"
        }
      ],
      "stateMutability": "view",
      "type": "function",
      "constant": true
    },
    {
      "inputs": [],
      "name": "nextTradeId",
      "outputs": [
        {
          "internalType": "uint256",
          "name": "",
          "type": "uint256"
        }
      ],
      "stateMutability": "view",
      "type": "function",
      "constant": true
    },
    {
      "inputs": [
        {
          "internalType": "bytes32",
          "name": "",
          "type": "bytes32"
        },
        {
          "internalType": "uint256",
          "name": "",
          "type": "uint256"
        },
        {
          "internalType": "uint256",
          "name": "",
          "type": "uint256"
        }
      ],
      "name": "orderBook",
      "outputs": [
        {
          "internalType": "uint256",
          "name": "id",
          "type": "uint256"
        },
        {
          "internalType": "enum Dex.Side",
          "name": "side",
          "type": "uint8"
        },
        {
          "internalType": "address",
          "name": "trader",
          "type": "address"
        },
        {
          "internalType": "bytes32",
          "name": "ticker",
          "type": "bytes32"
        },
        {
          "internalType": "uint256",
          "name": "amount",
          "type": "uint256"
        },
        {
          "internalType": "uint256",
          "name": "filled",
          "type": "uint256"
        },
        {
          "internalType": "uint256",
          "name": "price",
          "type": "uint256"
        },
        {
          "internalType": "uint256",
          "name": "timestamp",
          "type": "uint256"
        }
      ],
      "stateMutability": "view",
      "type": "function",
      "constant": true
    },
    {
      "inputs": [
        {
          "internalType": "uint256",
          "name": "",
          "type": "uint256"
        }
      ],
      "name": "tokenList",
      "outputs": [
        {
          "internalType": "bytes32",
          "name": "",
          "type": "bytes32"
        }
      ],
      "stateMutability": "view",
      "type": "function",
      "constant": true
    },
    {
      "inputs": [
        {
          "internalType": "bytes32",
          "name": "",
          "type": "bytes32"
        }
      ],
      "name": "tokens",
      "outputs": [
        {
          "internalType": "bytes32",
          "name": "ticker",
          "type": "bytes32"
        },
        {
          "internalType": "address",
          "name": "tokenAddress",
          "type": "address"
        }
      ],
      "stateMutability": "view",
      "type": "function",
      "constant": true
    },
    {
      "inputs": [
        {
          "internalType": "address",
          "name": "",
          "type": "address"
        },
        {
          "internalType": "bytes32",
          "name": "",
          "type": "bytes32"
        }
      ],
      "name": "traderBalances",
      "outputs": [
        {
          "internalType": "uint256",
          "name": "",
          "type": "uint256"
        }
      ],
      "stateMutability": "view",
      "type": "function",
      "constant": true
    },
    {
      "inputs": [
        {
          "internalType": "bytes32",
          "name": "_ticker",
          "type": "bytes32"
        },
        {
          "internalType": "address",
          "name": "_tokenAddress",
          "type": "address"
        }
      ],
      "name": "addToken",
      "outputs": [],
      "stateMutability": "nonpayable",
      "type": "function"
    },
    {
      "inputs": [
        {
          "internalType": "bytes32",
          "name": "_ticker",
          "type": "bytes32"
        },
        {
          "internalType": "uint256",
          "name": "_amount",
          "type": "uint256"
        }
      ],
      "name": "deposit",
      "outputs": [],
      "stateMutability": "nonpayable",
      "type": "function"
    },
    {
      "inputs": [
        {
          "internalType": "bytes32",
          "name": "_ticker",
          "type": "bytes32"
        },
        {
          "internalType": "uint256",
          "name": "_amount",
          "type": "uint256"
        }
      ],
      "name": "withdraw",
      "outputs": [],
      "stateMutability": "nonpayable",
      "type": "function"
    },
    {
      "inputs": [
        {
          "internalType": "bytes32",
          "name": "_ticker",
          "type": "bytes32"
        },
        {
          "internalType": "uint256",
          "name": "_amount",
          "type": "uint256"
        },
        {
          "internalType": "uint256",
          "name": "_price",
          "type": "uint256"
        },
        {
          "internalType": "enum Dex.Side",
          "name": "_side",
          "type": "uint8"
        }
      ],
      "name": "createLimitOrder",
      "outputs": [],
      "stateMutability": "nonpayable",
      "type": "function"
    },
    {
      "inputs": [
        {
          "internalType": "bytes32",
          "name": "_ticker",
          "type": "bytes32"
        },
        {
          "internalType": "uint256",
          "name": "_amount",
          "type": "uint256"
        },
        {
          "internalType": "enum Dex.Side",
          "name": "_side",
          "type": "uint8"
        }
      ],
      "name": "createMarketOrder",
      "outputs": [],
      "stateMutability": "nonpayable",
      "type": "function"
    },
    {
      "inputs": [
        {
          "internalType": "bytes32",
          "name": "ticker",
          "type": "bytes32"
        },
        {
          "internalType": "enum Dex.Side",
          "name": "side",
          "type": "uint8"
        }
      ],
      "name": "getOrders",
      "outputs": [
        {
          "components": [
            {
              "internalType": "uint256",
              "name": "id",
              "type": "uint256"
            },
            {
              "internalType": "enum Dex.Side",
              "name": "side",
              "type": "uint8"
            },
            {
              "internalType": "address",
              "name": "trader",
              "type": "address"
            },
            {
              "internalType": "bytes32",
              "name": "ticker",
              "type": "bytes32"
            },
            {
              "internalType": "uint256",
              "name": "amount",
              "type": "uint256"
            },
            {
              "internalType": "uint256",
              "name": "filled",
              "type": "uint256"
            },
            {
              "internalType": "uint256",
              "name": "price",
              "type": "uint256"
            },
            {
              "internalType": "uint256",
              "name": "timestamp",
              "type": "uint256"
            }
          ],
          "internalType": "struct Dex.Order[]",
          "name": "",
          "type": "tuple[]"
        }
      ],
      "stateMutability": "view",
      "type": "function",
      "constant": true
    },
    {
      "inputs": [],
      "name": "getTokens",
      "outputs": [
        {
          "components": [
            {
              "internalType": "bytes32",
              "name": "ticker",
              "type": "bytes32"
            },
            {
              "internalType": "address",
              "name": "tokenAddress",
              "type": "address"
            }
          ],
          "internalType": "struct Dex.Token[]",
          "name": "",
          "type": "tuple[]"
        }
      ],
      "stateMutability": "view",
      "type": "function",
      "constant": true
    }
  ],
  "bytecode": "0x608060405234801561001057600080fd5b5033600260006101000a81548173ffffffffffffffffffffffffffffffffffffffff021916908373ffffffffffffffffffffffffffffffffffffffff160217905550613516806100616000396000f3fe608060405234801561001057600080fd5b50600436106100ea5760003560e01c8063813ad0831161008c5780639ead7222116100665780639ead722214610263578063aa6ca80814610293578063d9c0c950146102b1578063f851a440146102cd576100ea565b8063813ad083146101f8578063904194a3146102165780639776aacf14610247576100ea565b80632a58b330116100c85780632a58b3301461015e57806346e9658b1461017c57806372ce957e146101ac5780637f2c6246146101dc576100ea565b8063040cf020146100ef5780630bb431b61461010b5780631de26e1614610142575b600080fd5b6101096004803603810190610104919061290d565b6102eb565b005b61012560048036038101906101209190612998565b6105a3565b604051610139989796959493929190613217565b60405180910390f35b61015c6004803603810190610157919061290d565b61063f565b005b610166610866565b60405161017391906131fc565b60405180910390f35b610196600480360381019061019191906128d1565b61086c565b6040516101a39190613012565b60405180910390f35b6101c660048036038101906101c19190612807565b6109bb565b6040516101d391906131fc565b60405180910390f35b6101f660048036038101906101f19190612949565b6109e0565b005b610200611a7b565b60405161020d91906131fc565b60405180910390f35b610230600480360381019061022b919061286c565b611a81565b60405161023e929190613071565b60405180910390f35b610261600480360381019061025c9190612895565b611ac5565b005b61027d60048036038101906102789190612a4a565b611c13565b60405161028a9190613056565b60405180910390f35b61029b611c34565b6040516102a89190613034565b60405180910390f35b6102cb60048036038101906102c691906129e7565b611d72565b005b6102d5612572565b6040516102e29190612f97565b60405180910390f35b81600073ffffffffffffffffffffffffffffffffffffffff1660008083815260200190815260200160002060010160009054906101000a900473ffffffffffffffffffffffffffffffffffffffff1673ffffffffffffffffffffffffffffffffffffffff161415610391576040517f08c379a0000000000000000000000000000000000000000000000000000000008152600401610388906131dc565b60405180910390fd5b81600360003373ffffffffffffffffffffffffffffffffffffffff1673ffffffffffffffffffffffffffffffffffffffff1681526020019081526020016000206000858152602001908152602001600020541015610424576040517f08c379a000000000000000000000000000000000000000000000000000000000815260040161041b906130fc565b60405180910390fd5b61048782600360003373ffffffffffffffffffffffffffffffffffffffff1673ffffffffffffffffffffffffffffffffffffffff16815260200190815260200160002060008681526020019081526020016000205461259890919063ffffffff16565b600360003373ffffffffffffffffffffffffffffffffffffffff1673ffffffffffffffffffffffffffffffffffffffff16815260200190815260200160002060008581526020019081526020016000208190555060008084815260200190815260200160002060010160009054906101000a900473ffffffffffffffffffffffffffffffffffffffff1673ffffffffffffffffffffffffffffffffffffffff1663a9059cbb33846040518363ffffffff1660e01b815260040161054b929190612fe9565b602060405180830381600087803b15801561056557600080fd5b505af1158015610579573d6000803e3d6000fd5b505050506040513d601f19601f8201168201806040525081019061059d9190612843565b50505050565b600460205282600052604060002060205281600052604060002081815481106105c857fe5b906000526020600020906007020160009250925050508060000154908060010160009054906101000a900460ff16908060010160019054906101000a900473ffffffffffffffffffffffffffffffffffffffff16908060020154908060030154908060040154908060050154908060060154905088565b81600073ffffffffffffffffffffffffffffffffffffffff1660008083815260200190815260200160002060010160009054906101000a900473ffffffffffffffffffffffffffffffffffffffff1673ffffffffffffffffffffffffffffffffffffffff1614156106e5576040517f08c379a00000000000000000000000000000000000000000000000000000000081526004016106dc906131dc565b60405180910390fd5b60008084815260200190815260200160002060010160009054906101000a900473ffffffffffffffffffffffffffffffffffffffff1673ffffffffffffffffffffffffffffffffffffffff166323b872dd3330856040518463ffffffff1660e01b815260040161075793929190612fb2565b602060405180830381600087803b15801561077157600080fd5b505af1158015610785573d6000803e3d6000fd5b505050506040513d601f19601f820116820180604052508101906107a99190612843565b5061080d82600360003373ffffffffffffffffffffffffffffffffffffffff1673ffffffffffffffffffffffffffffffffffffffff16815260200190815260200160002060008681526020019081526020016000205461259890919063ffffffff16565b600360003373ffffffffffffffffffffffffffffffffffffffff1673ffffffffffffffffffffffffffffffffffffffff168152602001908152602001600020600085815260200190815260200160002081905550505050565b60055481565b606060046000848152602001908152602001600020600083600181111561088f57fe5b8152602001908152602001600020805480602002602001604051908101604052809291908181526020016000905b828210156109af578382906000526020600020906007020160405180610100016040529081600082015481526020016001820160009054906101000a900460ff16600181111561090957fe5b600181111561091457fe5b81526020016001820160019054906101000a900473ffffffffffffffffffffffffffffffffffffffff1673ffffffffffffffffffffffffffffffffffffffff1673ffffffffffffffffffffffffffffffffffffffff16815260200160028201548152602001600382015481526020016004820154815260200160058201548152602001600682015481525050815260200190600101906108bd565b50505050905092915050565b6003602052816000526040600020602052806000526040600020600091509150505481565b82600073ffffffffffffffffffffffffffffffffffffffff1660008083815260200190815260200160002060010160009054906101000a900473ffffffffffffffffffffffffffffffffffffffff1673ffffffffffffffffffffffffffffffffffffffff161415610a86576040517f08c379a0000000000000000000000000000000000000000000000000000000008152600401610a7d906131dc565b60405180910390fd5b837f4441490000000000000000000000000000000000000000000000000000000000811415610aea576040517f08c379a0000000000000000000000000000000000000000000000000000000008152600401610ae19061317c565b60405180910390fd5b600180811115610af657fe5b836001811115610b0257fe5b1415610b9c5783600360003373ffffffffffffffffffffffffffffffffffffffff1673ffffffffffffffffffffffffffffffffffffffff1681526020019081526020016000206000878152602001908152602001600020541015610b9b576040517f08c379a0000000000000000000000000000000000000000000000000000000008152600401610b929061313c565b60405180910390fd5b5b6000600460008781526020019081526020016000206000806001811115610bbf57fe5b866001811115610bcb57fe5b14610bd7576000610bda565b60015b6001811115610be557fe5b815260200190815260200160002090506000808690505b828054905082108015610c0f5750600081115b1561183c576000610c63848481548110610c2557fe5b906000526020600020906007020160040154858581548110610c4357fe5b9060005260206000209060070201600301546125ed90919063ffffffff16565b90506000818311610c745782610c76565b815b9050610c8b81846125ed90919063ffffffff16565b8303925080858581548110610c9c57fe5b9060005260206000209060070201600401600082825401925050819055503373ffffffffffffffffffffffffffffffffffffffff16858581548110610cdd57fe5b906000526020600020906007020160010160019054906101000a900473ffffffffffffffffffffffffffffffffffffffff1673ffffffffffffffffffffffffffffffffffffffff168b7fdb0c486e680ba8026643e6a85f8d157b5e7bcd4b32b54d564542570a9eb20416600654600554868b8b81548110610d5a57fe5b90600052602060002090600702016005015442604051610d7e959493929190613295565b60405180910390a4600180811115610d9257fe5b886001811115610d9e57fe5b141561125357610e0781600360003373ffffffffffffffffffffffffffffffffffffffff1673ffffffffffffffffffffffffffffffffffffffff16815260200190815260200160002060008d8152602001908152602001600020546125ed90919063ffffffff16565b600360003373ffffffffffffffffffffffffffffffffffffffff1673ffffffffffffffffffffffffffffffffffffffff16815260200190815260200160002060008c815260200190815260200160002081905550610f0d610e8e868681548110610e6d57fe5b9060005260206000209060070201600501548361263790919063ffffffff16565b600360003373ffffffffffffffffffffffffffffffffffffffff1673ffffffffffffffffffffffffffffffffffffffff16815260200190815260200160002060007f444149000000000000000000000000000000000000000000000000000000000081526020019081526020016000205461259890919063ffffffff16565b600360003373ffffffffffffffffffffffffffffffffffffffff1673ffffffffffffffffffffffffffffffffffffffff16815260200190815260200160002060007f44414900000000000000000000000000000000000000000000000000000000008152602001908152602001600020819055506110218160036000888881548110610f9557fe5b906000526020600020906007020160010160019054906101000a900473ffffffffffffffffffffffffffffffffffffffff1673ffffffffffffffffffffffffffffffffffffffff1673ffffffffffffffffffffffffffffffffffffffff16815260200190815260200160002060008d81526020019081526020016000205461259890919063ffffffff16565b6003600087878154811061103157fe5b906000526020600020906007020160010160019054906101000a900473ffffffffffffffffffffffffffffffffffffffff1673ffffffffffffffffffffffffffffffffffffffff1673ffffffffffffffffffffffffffffffffffffffff16815260200190815260200160002060008c8152602001908152602001600020819055506111a16110e58686815481106110c457fe5b9060005260206000209060070201600501548361263790919063ffffffff16565b600360008888815481106110f557fe5b906000526020600020906007020160010160019054906101000a900473ffffffffffffffffffffffffffffffffffffffff1673ffffffffffffffffffffffffffffffffffffffff1673ffffffffffffffffffffffffffffffffffffffff16815260200190815260200160002060007f44414900000000000000000000000000000000000000000000000000000000008152602001908152602001600020546125ed90919063ffffffff16565b600360008787815481106111b157fe5b906000526020600020906007020160010160019054906101000a900473ffffffffffffffffffffffffffffffffffffffff1673ffffffffffffffffffffffffffffffffffffffff1673ffffffffffffffffffffffffffffffffffffffff16815260200190815260200160002060007f44414900000000000000000000000000000000000000000000000000000000008152602001908152602001600020819055505b6000600181111561126057fe5b88600181111561126c57fe5b1415611803576112a285858154811061128157fe5b9060005260206000209060070201600501548261263790919063ffffffff16565b600360003373ffffffffffffffffffffffffffffffffffffffff1673ffffffffffffffffffffffffffffffffffffffff16815260200190815260200160002060007f44414900000000000000000000000000000000000000000000000000000000008152602001908152602001600020541015611354576040517f08c379a000000000000000000000000000000000000000000000000000000000815260040161134b9061315c565b60405180910390fd5b6113b781600360003373ffffffffffffffffffffffffffffffffffffffff1673ffffffffffffffffffffffffffffffffffffffff16815260200190815260200160002060008d81526020019081526020016000205461259890919063ffffffff16565b600360003373ffffffffffffffffffffffffffffffffffffffff1673ffffffffffffffffffffffffffffffffffffffff16815260200190815260200160002060008c8152602001908152602001600020819055506114bd61143e86868154811061141d57fe5b9060005260206000209060070201600501548361263790919063ffffffff16565b600360003373ffffffffffffffffffffffffffffffffffffffff1673ffffffffffffffffffffffffffffffffffffffff16815260200190815260200160002060007f44414900000000000000000000000000000000000000000000000000000000008152602001908152602001600020546125ed90919063ffffffff16565b600360003373ffffffffffffffffffffffffffffffffffffffff1673ffffffffffffffffffffffffffffffffffffffff16815260200190815260200160002060007f44414900000000000000000000000000000000000000000000000000000000008152602001908152602001600020819055506115d1816003600088888154811061154557fe5b906000526020600020906007020160010160019054906101000a900473ffffffffffffffffffffffffffffffffffffffff1673ffffffffffffffffffffffffffffffffffffffff1673ffffffffffffffffffffffffffffffffffffffff16815260200190815260200160002060008d8152602001908152602001600020546125ed90919063ffffffff16565b600360008787815481106115e157fe5b906000526020600020906007020160010160019054906101000a900473ffffffffffffffffffffffffffffffffffffffff1673ffffffffffffffffffffffffffffffffffffffff1673ffffffffffffffffffffffffffffffffffffffff16815260200190815260200160002060008c81526020019081526020016000208190555061175161169586868154811061167457fe5b9060005260206000209060070201600501548361263790919063ffffffff16565b600360008888815481106116a557fe5b906000526020600020906007020160010160019054906101000a900473ffffffffffffffffffffffffffffffffffffffff1673ffffffffffffffffffffffffffffffffffffffff1673ffffffffffffffffffffffffffffffffffffffff16815260200190815260200160002060007f444149000000000000000000000000000000000000000000000000000000000081526020019081526020016000205461259890919063ffffffff16565b6003600087878154811061176157fe5b906000526020600020906007020160010160019054906101000a900473ffffffffffffffffffffffffffffffffffffffff1673ffffffffffffffffffffffffffffffffffffffff1673ffffffffffffffffffffffffffffffffffffffff16815260200190815260200160002060007f44414900000000000000000000000000000000000000000000000000000000008152602001908152602001600020819055505b611819600160065461259890919063ffffffff16565b60068190555061183360018561259890919063ffffffff16565b93505050610bfc565b600091505b82805490508210801561188d575082828154811061185b57fe5b90600052602060002090600702016003015483838154811061187957fe5b906000526020600020906007020160040154145b15611a715760008290505b60018480549050038110156119c7578360018201815481106118b657fe5b90600052602060002090600702018482815481106118d057fe5b9060005260206000209060070201600082015481600001556001820160009054906101000a900460ff168160010160006101000a81548160ff0219169083600181111561191957fe5b02179055506001820160019054906101000a900473ffffffffffffffffffffffffffffffffffffffff168160010160016101000a81548173ffffffffffffffffffffffffffffffffffffffff021916908373ffffffffffffffffffffffffffffffffffffffff16021790555060028201548160020155600382015481600301556004820154816004015560058201548160050155600682015481600601559050508080600101915050611898565b50828054806119d257fe5b60019003818190600052602060002090600702016000808201600090556001820160006101000a81549060ff02191690556001820160016101000a81549073ffffffffffffffffffffffffffffffffffffffff02191690556002820160009055600382016000905560048201600090556005820160009055600682016000905550509055611a6a60018361259890919063ffffffff16565b9150611841565b5050505050505050565b60065481565b60006020528060005260406000206000915090508060000154908060010160009054906101000a900473ffffffffffffffffffffffffffffffffffffffff16905082565b600260009054906101000a900473ffffffffffffffffffffffffffffffffffffffff1673ffffffffffffffffffffffffffffffffffffffff163373ffffffffffffffffffffffffffffffffffffffff1614611b55576040517f08c379a0000000000000000000000000000000000000000000000000000000008152600401611b4c9061311c565b60405180910390fd5b60405180604001604052808381526020018273ffffffffffffffffffffffffffffffffffffffff168152506000808481526020019081526020016000206000820151816000015560208201518160010160006101000a81548173ffffffffffffffffffffffffffffffffffffffff021916908373ffffffffffffffffffffffffffffffffffffffff16021790555090505060018290806001815401808255809150506001900390600052602060002001600090919091909150555050565b60018181548110611c2057fe5b906000526020600020016000915090505481565b60608060018054905067ffffffffffffffff81118015611c5357600080fd5b50604051908082528060200260200182016040528015611c8d57816020015b611c7a612702565b815260200190600190039081611c725790505b50905060008090505b600180549050811015611d6a57604051806040016040528060008060018581548110611cbe57fe5b9060005260206000200154815260200190815260200160002060000154815260200160008060018581548110611cf057fe5b9060005260206000200154815260200190815260200160002060010160009054906101000a900473ffffffffffffffffffffffffffffffffffffffff1673ffffffffffffffffffffffffffffffffffffffff16815250828281518110611d5257fe5b60200260200101819052508080600101915050611c96565b508091505090565b83600073ffffffffffffffffffffffffffffffffffffffff1660008083815260200190815260200160002060010160009054906101000a900473ffffffffffffffffffffffffffffffffffffffff1673ffffffffffffffffffffffffffffffffffffffff161415611e18576040517f08c379a0000000000000000000000000000000000000000000000000000000008152600401611e0f906131dc565b60405180910390fd5b847f4441490000000000000000000000000000000000000000000000000000000000811415611e7c576040517f08c379a0000000000000000000000000000000000000000000000000000000008152600401611e739061317c565b60405180910390fd5b600180811115611e8857fe5b836001811115611e9457fe5b1415611f325784600360003373ffffffffffffffffffffffffffffffffffffffff1673ffffffffffffffffffffffffffffffffffffffff1681526020019081526020016000206000888152602001908152602001600020541015611f2d576040517f08c379a0000000000000000000000000000000000000000000000000000000008152600401611f24906130bc565b60405180910390fd5b61256a565b611f45848661263790919063ffffffff16565b600360003373ffffffffffffffffffffffffffffffffffffffff1673ffffffffffffffffffffffffffffffffffffffff16815260200190815260200160002060007f44414900000000000000000000000000000000000000000000000000000000008152602001908152602001600020541015611ff7576040517f08c379a0000000000000000000000000000000000000000000000000000000008152600401611fee906131bc565b60405180910390fd5b600060046000888152602001908152602001600020600085600181111561201a57fe5b8152602001908152602001600020905080604051806101000160405280600554815260200186600181111561204b57fe5b81526020013373ffffffffffffffffffffffffffffffffffffffff168152602001898152602001888152602001600081526020018781526020014281525090806001815401808255809150506001900390600052602060002090600702016000909190919091506000820151816000015560208201518160010160006101000a81548160ff021916908360018111156120e057fe5b021790555060408201518160010160016101000a81548173ffffffffffffffffffffffffffffffffffffffff021916908373ffffffffffffffffffffffffffffffffffffffff160217905550606082015181600201556080820151816003015560a0820151816004015560c0820151816005015560e08201518160060155505060008082805490501161217457600061217d565b60018280549050035b90505b600081111561254b576000600181111561219657fe5b8560018111156121a257fe5b1480156121eb57508181815481106121b657fe5b9060005260206000209060070201600501548260018303815481106121d757fe5b906000526020600020906007020160050154115b156121f55761254b565b60018081111561220157fe5b85600181111561220d57fe5b148015612256575081818154811061222157fe5b90600052602060002090600702016005015482600183038154811061224257fe5b906000526020600020906007020160050154105b156122605761254b565b612268612735565b82600183038154811061227757fe5b906000526020600020906007020160405180610100016040529081600082015481526020016001820160009054906101000a900460ff1660018111156122b957fe5b60018111156122c457fe5b81526020016001820160019054906101000a900473ffffffffffffffffffffffffffffffffffffffff1673ffffffffffffffffffffffffffffffffffffffff1673ffffffffffffffffffffffffffffffffffffffff16815260200160028201548152602001600382015481526020016004820154815260200160058201548152602001600682015481525050905082828154811061235e57fe5b906000526020600020906007020183600184038154811061237b57fe5b9060005260206000209060070201600082015481600001556001820160009054906101000a900460ff168160010160006101000a81548160ff021916908360018111156123c457fe5b02179055506001820160019054906101000a900473ffffffffffffffffffffffffffffffffffffffff168160010160016101000a81548173ffffffffffffffffffffffffffffffffffffffff021916908373ffffffffffffffffffffffffffffffffffffffff16021790555060028201548160020155600382015481600301556004820154816004015560058201548160050155600682015481600601559050508083838154811061247257fe5b90600052602060002090600702016000820151816000015560208201518160010160006101000a81548160ff021916908360018111156124ae57fe5b021790555060408201518160010160016101000a81548173ffffffffffffffffffffffffffffffffffffffff021916908373ffffffffffffffffffffffffffffffffffffffff160217905550606082015181600201556080820151816003015560a0820151816004015560c0820151816005015560e082015181600601559050506125436001836125ed90919063ffffffff16565b915050612180565b612561600160055461259890919063ffffffff16565b60058190555050505b505050505050565b600260009054906101000a900473ffffffffffffffffffffffffffffffffffffffff1681565b6000808284019050838110156125e3576040517f08c379a00000000000000000000000000000000000000000000000000000000081526004016125da906130dc565b60405180910390fd5b8091505092915050565b600061262f83836040518060400160405280601e81526020017f536166654d6174683a207375627472616374696f6e206f766572666c6f7700008152506126a7565b905092915050565b60008083141561264a57600090506126a1565b600082840290508284828161265b57fe5b041461269c576040517f08c379a00000000000000000000000000000000000000000000000000000000081526004016126939061319c565b60405180910390fd5b809150505b92915050565b60008383111582906126ef576040517f08c379a00000000000000000000000000000000000000000000000000000000081526004016126e6919061309a565b60405180910390fd5b5060008385039050809150509392505050565b604051806040016040528060008019168152602001600073ffffffffffffffffffffffffffffffffffffffff1681525090565b604051806101000160405280600081526020016000600181111561275557fe5b8152602001600073ffffffffffffffffffffffffffffffffffffffff16815260200160008019168152602001600081526020016000815260200160008152602001600081525090565b6000813590506127ad81613474565b92915050565b6000815190506127c28161348b565b92915050565b6000813590506127d7816134a2565b92915050565b6000813590506127ec816134b9565b92915050565b600081359050612801816134c9565b92915050565b6000806040838503121561281a57600080fd5b60006128288582860161279e565b9250506020612839858286016127c8565b9150509250929050565b60006020828403121561285557600080fd5b6000612863848285016127b3565b91505092915050565b60006020828403121561287e57600080fd5b600061288c848285016127c8565b91505092915050565b600080604083850312156128a857600080fd5b60006128b6858286016127c8565b92505060206128c78582860161279e565b9150509250929050565b600080604083850312156128e457600080fd5b60006128f2858286016127c8565b9250506020612903858286016127dd565b9150509250929050565b6000806040838503121561292057600080fd5b600061292e858286016127c8565b925050602061293f858286016127f2565b9150509250929050565b60008060006060848603121561295e57600080fd5b600061296c868287016127c8565b935050602061297d868287016127f2565b925050604061298e868287016127dd565b9150509250925092565b6000806000606084860312156129ad57600080fd5b60006129bb868287016127c8565b93505060206129cc868287016127f2565b92505060406129dd868287016127f2565b9150509250925092565b600080600080608085870312156129fd57600080fd5b6000612a0b878288016127c8565b9450506020612a1c878288016127f2565b9350506040612a2d878288016127f2565b9250506060612a3e878288016127dd565b91505092959194509250565b600060208284031215612a5c57600080fd5b6000612a6a848285016127f2565b91505092915050565b6000612a7f8383612ea8565b6101008301905092915050565b6000612a988383612f4a565b60408301905092915050565b612aad816133db565b82525050565b612abc81613376565b82525050565b612acb81613376565b82525050565b6000612adc82613308565b612ae68185613343565b9350612af1836132e8565b8060005b83811015612b22578151612b098882612a73565b9750612b1483613329565b925050600181019050612af5565b5085935050505092915050565b6000612b3a82613313565b612b448185613354565b9350612b4f836132f8565b8060005b83811015612b80578151612b678882612a8c565b9750612b7283613336565b925050600181019050612b53565b5085935050505092915050565b612b9681613394565b82525050565b612ba581613394565b82525050565b612bb4816133ed565b82525050565b612bc3816133ed565b82525050565b6000612bd48261331e565b612bde8185613365565b9350612bee818560208601613423565b612bf781613456565b840191505092915050565b6000612c0f601883613365565b91507f796f75206d757374206861766520656e6f7567682064616900000000000000006000830152602082019050919050565b6000612c4f601b83613365565b91507f536166654d6174683a206164646974696f6e206f766572666c6f7700000000006000830152602082019050919050565b6000612c8f601483613365565b91507f496e73756666696369656e742062616c616e63650000000000000000000000006000830152602082019050919050565b6000612ccf600a83613365565b91507f6f6e6c792061646d696e000000000000000000000000000000000000000000006000830152602082019050919050565b6000612d0f601483613365565b91507f746f6b656e2062616c616e6365206973206c6f770000000000000000000000006000830152602082019050919050565b6000612d4f601783613365565b91507f496e73756666696369656e742044414920746f6b656e730000000000000000006000830152602082019050919050565b6000612d8f601083613365565b91507f63616e6e6f7420747261646520646169000000000000000000000000000000006000830152602082019050919050565b6000612dcf602183613365565b91507f536166654d6174683a206d756c7469706c69636174696f6e206f766572666c6f60008301527f77000000000000000000000000000000000000000000000000000000000000006020830152604082019050919050565b6000612e35600f83613365565b91507f6461692062616c616e6365206c6f7700000000000000000000000000000000006000830152602082019050919050565b6000612e75601483613365565b91507f746f6b656e20646f6573206e6f742065786973740000000000000000000000006000830152602082019050919050565b61010082016000820151612ebf6000850182612f79565b506020820151612ed26020850182612bab565b506040820151612ee56040850182612ab3565b506060820151612ef86060850182612b8d565b506080820151612f0b6080850182612f79565b5060a0820151612f1e60a0850182612f79565b5060c0820151612f3160c0850182612f79565b5060e0820151612f4460e0850182612f79565b50505050565b604082016000820151612f606000850182612b8d565b506020820151612f736020850182612ab3565b50505050565b612f82816133d1565b82525050565b612f91816133d1565b82525050565b6000602082019050612fac6000830184612ac2565b92915050565b6000606082019050612fc76000830186612aa4565b612fd46020830185612ac2565b612fe16040830184612f88565b949350505050565b6000604082019050612ffe6000830185612aa4565b61300b6020830184612f88565b9392505050565b6000602082019050818103600083015261302c8184612ad1565b905092915050565b6000602082019050818103600083015261304e8184612b2f565b905092915050565b600060208201905061306b6000830184612b9c565b92915050565b60006040820190506130866000830185612b9c565b6130936020830184612ac2565b9392505050565b600060208201905081810360008301526130b48184612bc9565b905092915050565b600060208201905081810360008301526130d581612c02565b9050919050565b600060208201905081810360008301526130f581612c42565b9050919050565b6000602082019050818103600083015261311581612c82565b9050919050565b6000602082019050818103600083015261313581612cc2565b9050919050565b6000602082019050818103600083015261315581612d02565b9050919050565b6000602082019050818103600083015261317581612d42565b9050919050565b6000602082019050818103600083015261319581612d82565b9050919050565b600060208201905081810360008301526131b581612dc2565b9050919050565b600060208201905081810360008301526131d581612e28565b9050919050565b600060208201905081810360008301526131f581612e68565b9050919050565b60006020820190506132116000830184612f88565b92915050565b60006101008201905061322d600083018b612f88565b61323a602083018a612bba565b6132476040830189612ac2565b6132546060830188612b9c565b6132616080830187612f88565b61326e60a0830186612f88565b61327b60c0830185612f88565b61328860e0830184612f88565b9998505050505050505050565b600060a0820190506132aa6000830188612f88565b6132b76020830187612f88565b6132c46040830186612f88565b6132d16060830185612f88565b6132de6080830184612f88565b9695505050505050565b6000819050602082019050919050565b6000819050602082019050919050565b600081519050919050565b600081519050919050565b600081519050919050565b6000602082019050919050565b6000602082019050919050565b600082825260208201905092915050565b600082825260208201905092915050565b600082825260208201905092915050565b6000613381826133b1565b9050919050565b60008115159050919050565b6000819050919050565b60008190506133ac82613467565b919050565b600073ffffffffffffffffffffffffffffffffffffffff82169050919050565b6000819050919050565b60006133e6826133ff565b9050919050565b60006133f88261339e565b9050919050565b600061340a82613411565b9050919050565b600061341c826133b1565b9050919050565b60005b83811015613441578082015181840152602081019050613426565b83811115613450576000848401525b50505050565b6000601f19601f8301169050919050565b6002811061347157fe5b50565b61347d81613376565b811461348857600080fd5b50565b61349481613388565b811461349f57600080fd5b50565b6134ab81613394565b81146134b657600080fd5b50565b600281106134c657600080fd5b50565b6134d2816133d1565b81146134dd57600080fd5b5056fea2646970667358221220edfa5a1ff1e908c70fdd9bf61ebe1d4e71431e98460047e7ca760d9d85ba50e164736f6c63430006050033",
  "immutableReferences": {},
  "source": "pragma solidity 0.6.5;\npragma experimental ABIEncoderV2;\n\nimport \"@openzeppelin/contracts/token/ERC20/IERC20.sol\";\nimport \"@openzeppelin/contracts/math/SafeMath.sol\";\n\ncontract Dex{\n    \n    using SafeMath for uint256;\n    \n    struct Token{\n        bytes32 ticker;\n        address tokenAddress;\n    }\n    \n    bytes32 constant DAI = bytes32(\"DAI\");\n    mapping(bytes32 => Token) public tokens;\n    bytes32[] public tokenList;\n    address public admin;\n    mapping(address => mapping( bytes32 => uint )) public traderBalances;\n    mapping(bytes32 => mapping(uint => Order[])) public orderBook;\n    uint public nextOrderId;\n    uint public nextTradeId;\n    \n    enum Side{\n        BUY,\n        SELL\n    }\n    \n    event NewTrade(\n        uint tradeId,\n        uint orderId,\n        bytes32 indexed ticker,\n        address indexed trader1,\n        address indexed trader2,\n        uint amount,\n        uint price,\n        uint date\n    );\n    \n    struct Order{\n        uint id;\n        Side side;\n        address trader;\n        bytes32 ticker;\n        uint amount;\n        uint filled;\n        uint price;\n        uint timestamp;\n    }\n    \n    constructor() public {\n        admin = msg.sender;\n    }\n    \n    modifier onlyAdmin(){\n        require(msg.sender == admin, \"only admin\");\n        _;\n    }\n    \n    modifier tokenExists(bytes32 _ticker){\n        require(tokens[_ticker].tokenAddress != address(0), \"token does not exist\");\n        _;\n    }\n    \n    function addToken(bytes32 _ticker, address _tokenAddress) onlyAdmin() external {\n        tokens[_ticker] = Token(_ticker, _tokenAddress);\n        tokenList.push(_ticker);\n    }\n    \n    function deposit(bytes32 _ticker, uint _amount) tokenExists(_ticker) external {\n        IERC20(tokens[_ticker].tokenAddress).transferFrom(msg.sender, address(this), _amount);\n        traderBalances[msg.sender][_ticker] = traderBalances[msg.sender][_ticker].add(_amount);\n    }\n    \n    function withdraw(bytes32 _ticker, uint _amount) tokenExists(_ticker) external {\n        require(traderBalances[msg.sender][_ticker] >= _amount, \"Insufficient balance\");\n        traderBalances[msg.sender][_ticker] = traderBalances[msg.sender][_ticker].add(_amount);\n        IERC20(tokens[_ticker].tokenAddress).transfer(msg.sender, _amount);\n        \n    }\n    \n    modifier tokenIsNotDai(bytes32 _ticker){\n        require(_ticker != DAI, \"cannot trade dai\");\n        _;\n    }\n    \n    function createLimitOrder(\n        bytes32 _ticker ,\n        uint _amount, \n        uint _price, \n        Side _side\n    ) \n    tokenExists(_ticker) \n    tokenIsNotDai(_ticker)\n    external\n    {\n        if(_side == Side.SELL){\n            require(traderBalances[msg.sender][_ticker] >= _amount, \"you must have enough dai\");\n        }else{\n            require(traderBalances[msg.sender][DAI] >= _amount.mul(_price), \"dai balance low\");\n            Order[] storage orders = orderBook[_ticker][uint(_side)];\n            orders.push(Order(nextOrderId, _side, msg.sender, _ticker, _amount, 0, _price, now));\n            \n            uint i = orders.length > 0 ? orders.length - 1 : 0;\n            while(i > 0){\n                if(_side == Side.BUY && orders[i-1].price > orders[i].price){\n                    break;\n                }\n                \n                if(_side == Side.SELL && orders[i-1].price < orders[i].price){\n                    break;\n                }\n                \n                Order memory order = orders[i - 1];\n                orders[i - 1] = orders[i];\n                orders[i] = order;\n                i = i.sub(1);\n            }\n            nextOrderId = nextOrderId.add(1);\n        }\n        \n    }\n    \n    function createMarketOrder(\n        bytes32 _ticker, \n        uint _amount, \n        Side _side) \n    tokenExists(_ticker) \n    tokenIsNotDai(_ticker) public \n    {\n        if(_side == Side.SELL){\n            require(traderBalances[msg.sender][_ticker] >= _amount, \"token balance is low\");\n        }\n        \n        Order[] storage orders = orderBook[_ticker][uint(_side == Side.BUY ? Side.SELL : Side.BUY)];\n        uint i;\n        uint remaining = _amount;\n        \n        while( i < orders.length && remaining > 0){\n            uint available = orders[i].amount.sub(orders[i].filled);\n            uint matched = (remaining > available) ? available : remaining;\n            remaining -= remaining.sub(matched);\n            orders[i].filled += matched;\n            emit NewTrade(\n                nextTradeId, \n                nextOrderId, \n                _ticker, \n                orders[i].trader, \n                msg.sender, \n                matched, \n                orders[i].price, \n                now \n            );\n            \n            if(_side == Side.SELL){\n                traderBalances[msg.sender][_ticker] = traderBalances[msg.sender][_ticker].sub(matched);\n                traderBalances[msg.sender][DAI] = traderBalances[msg.sender][DAI].add(matched.mul(orders[i].price));\n                traderBalances[orders[i].trader][_ticker] = traderBalances[orders[i].trader][_ticker].add(matched);\n                traderBalances[orders[i].trader][DAI] =traderBalances[orders[i].trader][DAI].sub(matched.mul(orders[i].price));\n            }\n            \n            if(_side == Side.BUY){\n                require(traderBalances[msg.sender][DAI] >= matched.mul(orders[i].price), \"Insufficient DAI tokens\");\n                traderBalances[msg.sender][_ticker] = traderBalances[msg.sender][_ticker].add(matched);\n                traderBalances[msg.sender][DAI] = traderBalances[msg.sender][DAI].sub(matched.mul(orders[i].price));\n                traderBalances[orders[i].trader][_ticker] = traderBalances[orders[i].trader][_ticker].sub(matched);\n                traderBalances[orders[i].trader][DAI] = traderBalances[orders[i].trader][DAI].add(matched.mul( orders[i].price));\n            }\n            \n            nextTradeId = nextTradeId.add(1);\n            i = i.add(1);\n        }\n        \n        i = 0;\n        while(i < orders.length && orders[i].filled == orders[i].amount){\n            for(uint j = i; j < orders.length - 1; j++){\n                orders[j] = orders[j + 1];\n            }\n            orders.pop();\n            i = i.add(1);\n        }\n    }\n    \n    function getOrders(bytes32 ticker, Side side) external view returns(Order[] memory) {\n        return orderBook[ticker][uint(side)];\n    }\n    \n    function getTokens() external view returns(Token[] memory) {\n      Token[] memory _tokens = new Token[](tokenList.length);\n      for (uint i = 0; i < tokenList.length; i++) {\n        _tokens[i] = Token(\n          tokens[tokenList[i]].ticker,\n          tokens[tokenList[i]].tokenAddress\n        );\n      }\n      return _tokens;\n    }\n}",
  "sourcePath": "/home/anthler/Desktop/SMART CONTRACTS/decentralized-exchange/contracts/Dex.sol",
  "compiler": {
    "name": "solc",
    "version": "0.6.5+commit.f956cc89.Emscripten.clang"
  },
  "schemaVersion": "3.2.0",
  "updatedAt": "2020-07-21T10:33:19.964Z",
  "networkType": "ethereum",
  "devdoc": {
    "methods": {}
  },
  "userdoc": {
    "methods": {}
  }
}